:020000040800F2
:10000000D80600208901000891010008930100082A
:100010009501000897010008990100080000000000
:100020000000000000000000000000009B0100082C
:100030009D010008000000009F010008A1010008C8
:10004000A3010008A3010008A3010008A301000800
:10005000A3010008A3010008A3010008A3010008F0
:10006000A3010008A3010008A3010008A3010008E0
:10007000A3010008A3010008A3010008A3010008D0
:10008000A3010008A3010008A3010008A3010008C0
:10009000A3010008A3010008A3010008A3010008B0
:1000A000A3010008A3010008A3010008A3010008A0
:1000B000A3010008A3010008A3010008A301000890
:1000C000A3010008A3010008A3010008A301000880
:1000D000A3010008A3010008A3010008F10C000817
:1000E000A3010008A3010008A301000800F002F822
:1000F00000F03AF80AA090E8000C82448344AAF188
:100100000107DA4501D100F02FF8AFF2090EBAE885
:100110000F0013F0010F18BFFB1A43F0010318473B
:10012000EC1000000C110000103A24BF78C878C110
:10013000FAD8520724BF30C830C144BF04680C60ED
:10014000704700000023002400250026103A28BF35
:1001500078C1FBD8520728BF30C148BF0B60704739
:100160001FB51FBD10B510BD00F031F81146FFF7E7
:10017000F7FF00F0D9FE00F04FF803B4FFF7F2FFED
:1001800003BC00F057F800000948804709480047C1
:10019000FEE7FEE7FEE7FEE7FEE7FEE7FEE7FEE737
:1001A000FEE7FEE704480549054A064B7047000094
:1001B0009D0B0008ED000008D8000020D8060020A4
:1001C000D8020020D802002070477047704775465B
:1001D00000F02CF8AE4605006946534620F00700B3
:1001E000854618B020B5FFF7DDFFBDE820404FF091
:1001F00000064FF000074FF000084FF0000B21F011
:100200000701AC46ACE8C009ACE8C009ACE8C009DD
:10021000ACE8C0098D46704710B50446AFF30080C6
:100220002046BDE81040FFF7A8BF00000048704717
:100230007400002001491820ABBEFEE72600020032
:100240007047000030B5044604254FF4302000F01C
:10025000BDF80546042D17D10C48006940F0020096
:100260000A49086108464461006940F0400008619D
:100270004FF4302000F0AAF805460448006941F622
:10028000FD71084001490861284630BD0020024048
:1002900004200B49C96801F0010109B101200EE0F9
:1002A0000749C96801F0040109B1022007E00449C7
:1002B000C96801F0100109B1032000E00420704773
:1002C0000020024001460020012908D1084AD269D5
:1002D00002F001020AB1012008E0002006E0044A11
:1002E000D2680A400AB1012000E0002070470000F7
:1002F000002002400348006940F080000149086185
:10030000704700000020024070B504460D460426E8
:10031000F00200F05BF80646042E11D1094800698E
:1003200040F00100074908612580F00200F04EF816
:1003300006460448006941F6FE710840014908611B
:10034000304670BD0020024078B506460C460425B4
:1003500000200090E80200F039F80546042D24D171
:100360001348006940F00100114908613480E80237
:1003700000F02CF80546042D10D1B01C0090200C84
:1003800000990880E80200F021F805460848006955
:1003900041F6FE7108400649086106E0044800691C
:1003A00041F6FE71084002490861284678BD000008
:1003B00000200240024803494860034848607047F3
:1003C0002301674500200240AB89EFCD00B502460E
:1003D0000423FFF75DFF034603E0FFF759FF0346E1
:1003E000521E012B01D1002AF7D102B9052318466C
:1003F00000BD70B50546FFF7DDFF00BF0120FFF728
:1004000061FF0128FAD02846FFF71CFF0446042CA0
:1004100002D0FFF76FFF70BDFFF76CFF00BFFAE778
:100420001FB5134900230FE00A68541C54B1402A39
:1004300008D20C6800944C6801948C680294CC68D3
:1004400003940123103100BF0A4A9142ECD943B111
:10045000009A0260019A4260029A8260039AC26026
:1004600005E04FF0FF32026042608260C2601FBD53
:10047000003C0008FF3F00082DE9F04107460E460A
:100480001446FFF797FF00BF0120FFF71BFF01286D
:10049000FAD0002513E016F815106800401C305CF7
:1004A00041EA0028022101FB05704146FFF72CFFBD
:1004B00000BF0120FFF706FF0128FAD06D1C04EBF6
:1004C000D471B5EB610FE6DB204604EBD071491027
:1004D000A4EB410179B1601E305C40F47F453919CD
:1004E000481E2946FFF710FF00BF0120FFF7EAFE74
:1004F0000128FAD000BFFFF7FDFEBDE8F08170B51E
:1005000004460D46FFF756FF29462046FFF71CFF1D
:10051000FFF7F0FE70BD2DE9F041024600250026F0
:10052000002000230024002791F803C00CF00F05E1
:1005300091F803C00CF0100CBCF1000F03D091F83F
:1005400002C04CEA050591F800C0BCF1000F31D0A3
:10055000146800202BE04FF0010C0CFA00F3B1F806
:1005600000C00CEA03069E4220D183004FF00F0C1E
:100570000CFA03F7BC4305FA03FC4CEA040491F8B7
:1005800003C0BCF1280F06D14FF0010C0CFA00FC9F
:10059000C2F814C00AE091F803C0BCF1480F05D1BD
:1005A0004FF0010C0CFA00FCC2F810C0401C0828E7
:1005B000D1D31460B1F800C0BCF1FF0F34DD546832
:1005C00000202EE000F1080C4FF0010808FA0CF3AF
:1005D000B1F800C00CEA03069E4221D183004FF01F
:1005E0000F0C0CFA03F7BC4305FA03FC4CEA0404B5
:1005F00091F803C0BCF1280F05D100F1080C08FAEE
:100600000CF8C2F8148091F803C0BCF1480F07D170
:1006100000F1080C4FF0010808FA0CF8C2F810803D
:10062000401C0828CED35460BDE8F08170B500218D
:1006300000230F22C47804B3154C246804F4E0644A
:10064000C4F5E064210AC1F10403CA40447804FA05
:1006500003F184781440214309010E4C0678A1551A
:10066000047804F01F050124AC4005786D11AD003D
:1006700005F1E025C5F8004109E0047804F01F0504
:100680000124AC40044D0678761145F8264070BD33
:100690000CED00E000E400E080E100E029B1064A52
:1006A000D2690243044BDA6104E0034AD26982430F
:1006B000014BDA61704700000010024029B1064A80
:1006C00092690243044B9A6104E0034A92698243AF
:1006D000014B9A61704700000010024030B50021C4
:1006E0000022002400232D4D6D6805F00C0121B17E
:1006F000042905D0082923D105E0294D056022E011
:10070000274D05601FE0254D6D6805F47012234DDF
:100710006D6805F48034022505EB92421CB9214D29
:10072000554305600BE01D4D6D6805F400351DB1A6
:100730001C4D5543056002E0194D5543056002E02C
:10074000174D056000BF00BF144D6D6805F0F00146
:100750000909154D6B5C0568DD4045600F4D6D68FE
:1007600005F4E061090A104D6B5C4568DD40856069
:100770000A4D6D6805F46051C90A0B4D6B5C456804
:10078000DD40C560054D6D6805F44041890B074D9E
:100790006B5CC568B5FBF3F5056130BD0010024028
:1007A00000127A0000093D000C0000201C0000200F
:1007B0002548006840F480302349086000BF224883
:1007C000006800F400300028F9D01F48406840F469
:1007D000E0101D4948600846406840F48030486099
:1007E0000846406840F480604860084640684860B9
:1007F0000846006840F08070086000BF124800683A
:1008000000F000700028F9D00F48406840F0080060
:100810000D49486000BF0C48406800F00C000828F3
:10082000F9D10A48006840F0070008490860084606
:10083000006840F01000086000BF0448006800F045
:1008400020000028F9D0704700100240002002402C
:1008500010B5024612B1D06800B109B9002010BD30
:1008600010685368984203D1107C08B90020F6E75D
:100870005368D068C05C08705068401C9368B0FB37
:10088000F3F403FB14005060002010740120E6E72D
:10089000034613B109B1022A01D200207047D96082
:1008A0000020186058609A6018740120F6E710B5AF
:1008B00002460AB1D06808B9002010BD107C08B10A
:1008C0000020FAE71368D068C1541068401C936890
:1008D000B0FBF3F403FB14001060106853689842F7
:1008E00003D1012010740020E7E70120E5E70000B4
:1008F00070B5044630493148FFF7AAFF012803D1FB
:100900002D480078207000E070BD2B492B48FFF780
:100910009FFF012803D128480078607000E0F3E7CA
:1009200025492648FFF794FF012803D12248007883
:10093000A07000E0E8E7002510E01F491F48FFF71E
:1009400087FF012808D1D4F803001B49097841EA40
:100950000020C4F8030000E0D6E76D1C042DECDB9A
:1009600000250FE014491548FFF772FF012807D151
:10097000E0791149097841EA0020A4F8070000E075
:10098000C2E76D1C022DEDDB0B490C48FFF760FF41
:10099000012803D108480078607200E0B4E70649F6
:1009A0000648FFF755FF012803D103480178A172DB
:1009B00000E0A9E700BFA7E70A00002060000020D0
:1009C00010B5044621492248FFF742FF012803D110
:1009D0001E480078207000E010BD1C491C48FFF73D
:1009E00037FF012803D119480078607000E0F3E771
:1009F00016491748FFF72CFF012803D11348007848
:100A0000A07000E0E8E711491148FFF721FF012835
:100A100003D10E480078E07000E0DDE70B490C4898
:100A2000FFF716FF012803D108480078207100E085
:100A3000D2E706490648FFF70BFF012803D1034818
:100A40000178617100E0C7E700BFC5E70900002039
:100A5000600000201CB5A5208DF8000000208DF856
:100A6000010001208DF8020006208DF8030000200F
:100A70008DF804005A218DF805100621684600F013
:100A800019F91CBD1CB5A5208DF8000000208DF8BB
:100A9000010001208DF8020015208DF803000020D0
:100AA0008DF804005A218DF805100621684600F0E3
:100AB00001F91CBD10B500F001F810BD0CB5002007
:100AC000019000903348006840F48030314908605C
:100AD00000BF3048006800F4003000900198401CCE
:100AE0000190009818B90198B0F5A06FF1D129488C
:100AF000006800F4003010B10120009001E00020F7
:100B000000900098012843D12348006840F010006D
:100B1000214908600846006820F007000860084680
:100B2000006840F0020008601A48406819494860AF
:100B30000846406848600846406840F48060486065
:100B40000846406820F47C1048600846406840F43D
:100B5000E81048600846006840F08070086000BFF8
:100B60000C48006800F000700028F9D0094840687F
:100B700020F00300074948600846406840F0020042
:100B8000486000BF0348406800F00C000828F9D115
:100B90000CBD0000001002400020024010B51348B8
:100BA000006840F00100114908600846406810499B
:100BB00008400E494860084600680E4908400B4945
:100BC00008600846006820F48020086008464068F5
:100BD00020F4FE0048604FF41F008860FFF76AFFB2
:100BE0004FF000600449086010BD00000010024092
:100BF0000000FFF8FFFFF6FE08ED00E000B587B04B
:100C000001218804FFF74AFD01210820FFF756FD66
:100C10004FF48060ADF8040018208DF80700032021
:100C20008DF8060001A92148FFF775FC4FF400601C
:100C3000ADF8040004208DF8070001A91B48FFF758
:100C40006AFC4FF4E13003900020ADF81000ADF8DD
:100C50001200ADF814000C20ADF816000020ADF81D
:100C6000180003A9124800F0E9F8012240F22551CA
:100C70000F4800F0BDF8012240F224410C4800F07A
:100C8000B7F827208DF8080000208DF809008DF8AE
:100C90000A0001208DF80B0002A8FFF7C7FC012114
:100CA000034800F062F807B000BD0000000C0140EE
:100CB0000048004070B505460E46002404E0285D5B
:100CC00000F006F8601C84B2B442F8DB70BD00008E
:100CD00010B5044600BF8021044800F052F80028F7
:100CE000F9D02146014800F01AF910BD0048004033
:100CF00010B540F22551124800F050F868B1104884
:100D000000F008F9C4B221460E48FFF7D0FD40F2CA
:100D100025510B4800F01AF800BF40F22441084862
:100D200000F03CF850B1012007490870044800F079
:100D3000F1F840F22441024800F008F810BD00002C
:100D400000480040600000200000002010B5002294
:100D5000002340F66A14A14200D100BF0A12012408
:100D60009440A3B2DC43048010BD21B1828942F4D7
:100D70000052828104E082894DF6FF731A4082811D
:100D8000704702460020B1F5007F00D100BF1388F4
:100D90000B400BB1012000E00020704770B5024607
:100DA000002400230025002040F66A16B14200D13D
:100DB00000BFC1F3421501F01F03012606FA03F339
:100DC000012D02D19689334006E0022D02D1168A08
:100DD000334001E0968A33400C12012606FA04F4EF
:100DE0001688344013B10CB1012000E0002070BD22
:100DF000F0B50346002400260025002040F66A17BF
:100E0000B94200D100BF1846C1F3421401F01F06D9
:100E1000012707FA06F5012C01D10C3004E0022C61
:100E200001D1103000E014301AB107682F43076079
:100E300002E00768AF430760F0BD00002DE9F0470E
:100E400086B005460E460024A24600BFA1460027F4
:100E5000B08900B100BF2F462C8A4CF6FF700440C9
:100E6000F08804432C82AC894EF6F3100440B0881D
:100E700031890843718908430443AC81AC8A4FF639
:100E8000FF400440B0890443AC8201A8FFF726FC70
:100E90001F48874202D1DDF810A001E0DDF80CA068
:100EA000A88900F4004040B10AEBCA0000EB0A1028
:100EB00031684900B0FBF1F807E00AEBCA0000EB2B
:100EC0000A1031688900B0FBF1F86420B8FBF0F03B
:100ED00004012009642101FB1089A88900F4004065
:100EE00040B1322000EBC900B0FBF1F000F0070088
:100EF000044308E0322000EB09106421B0FBF1F05C
:100F000000F00F0004432C8106B0BDE8F08700001C
:100F10000038014001468888C0F308007047C1F3DB
:100F200008028280704700008AB0FFF741FCFFF79B
:100F300065FE4022AD49AE48FFF7AAFC002553E10B
:100F400035B1012D37D0022D7ED0032D7DD147E163
:100F5000A848007870B30020A649087004A8FFF7DD
:100F60002FFD9DF81000A5280ED19DF8110058B94D
:100F70009DF81200012807D19DF81300102803D115
:100F80009DF815005A2802D0FFF77CFD11E09A4920
:100F90009748FFF75DFC48B100BF97499448FFF7B9
:100FA00057FC0128F9D0FFF76DFD02E00125FFF79E
:100FB00051FD00BF17E18F48007800287ED0002047
:100FC0008C49087003A8FFF793FC9DF80C00A52836
:100FD0000BD19DF80D00012807D19DF80E000628C1
:100FE00003D19DF816005A2802D0FFF74BFD8DE083
:100FF00081497F48FFF72CFC48B100BF7E497C48FF
:10100000FFF726FC0128F9D0FFF73CFD7EE0022522
:10101000BDF81300C11700EB91518912774A117086
:10102000BDF81300C11700EB91518912A0EB81218B
:1010300021B110460078401C1146087006A8FFF741
:10104000EFF90698401C01E062E0CBE0B8B3002461
:1010500005E0089901EB8420FFF7CBF9641C674891
:1010600000788442F5DB069A511C521C644B03EB5A
:101070000210FFF744FA069A521C614B03EB02126E
:10108000101D0899FFF73BFA5C4A1278089B03EBA6
:101090008221069A521C5A4B03EB021202F10800FD
:1010A000FFF72DFADDF80F10069A521C544B03EB94
:1010B000021202F10C00FFF722FA25E027E0FFE719
:1010C000002405E04F4901EB8420FFF792F9641CEE
:1010D0004A4800788442F5DB00214948FFF70FFABF
:1010E00048494748001DFFF70AFA44480078454A36
:1010F00002EB802142480830FFF701FADDF80F10BB
:101100003F480C30FFF7FBF9FFF7A4FC00BF6AE093
:1011100038480078002862D0002036490870002442
:1011200008E035493248FFF793FB334800780DF863
:101130000400641C152CF4DB2F492D48FFF788FBB5
:1011400048B100BF2C492A48FFF782FB0128F9D09B
:10115000FFF798FC42E09DF80000A52802D0FFF7B9
:1011600091FC3BE09DF8010090B99DF80200012838
:101170000BD19DF80300132807D19DF805005A28CC
:1011800003D10325FFF766FC28E0FFF77BFC25E091
:101190009DF8010002281FD19DF80200102818D1E7
:1011A0009DF814005A2814D106A8FFF739F91649FA
:1011B000079A096802EB011010220DF10301FFF7F5
:1011C0005BF911480068401C0F490860FFF742FCBA
:1011D00004E0FFF757FC01E0FFF754FC00BF02E01A
:1011E000002500E000BF00BFAAE6000020000020AC
:1011F0006000002000000020010000200800002006
:10120000003C000800400008040000202C120008E8
:101210000000002020000000280100084C120008F7
:1012200020000020B8060000440100080000000073
:1012300000000000000000000000000001020304A4
:0C12400001020304060708090204060866
:04000005080000ED02
:00000001FF
